{
	"storgaeMemoreyCallData.sol": {
		"DataLocations": {
			"abi": [
				{
					"inputs": [],
					"name": "exapmles",
					"outputs": [],
					"stateMutability": "nonpayable",
					"type": "function"
				},
				{
					"inputs": [
						{
							"internalType": "address",
							"name": "",
							"type": "address"
						}
					],
					"name": "myStructs",
					"outputs": [
						{
							"internalType": "uint256",
							"name": "foo",
							"type": "uint256"
						},
						{
							"internalType": "string",
							"name": "text",
							"type": "string"
						}
					],
					"stateMutability": "view",
					"type": "function"
				}
			],
			"devdoc": {
				"kind": "dev",
				"methods": {},
				"version": 1
			},
			"evm": {
				"assembly": "    /* \"storgaeMemoreyCallData.sol\":234:539  contract DataLocations{... */\n  mstore(0x40, 0x80)\n  callvalue\n  dup1\n  iszero\n  tag_1\n  jumpi\n  0x00\n  dup1\n  revert\ntag_1:\n  pop\n  dataSize(sub_0)\n  dup1\n  dataOffset(sub_0)\n  0x00\n  codecopy\n  0x00\n  return\nstop\n\nsub_0: assembly {\n        /* \"storgaeMemoreyCallData.sol\":234:539  contract DataLocations{... */\n      mstore(0x40, 0x80)\n      callvalue\n      dup1\n      iszero\n      tag_1\n      jumpi\n      0x00\n      dup1\n      revert\n    tag_1:\n      pop\n      jumpi(tag_2, lt(calldatasize, 0x04))\n      shr(0xe0, calldataload(0x00))\n      dup1\n      0x4d1c3e33\n      eq\n      tag_3\n      jumpi\n      dup1\n      0xb43c5d33\n      eq\n      tag_4\n      jumpi\n    tag_2:\n      0x00\n      dup1\n      revert\n        /* \"storgaeMemoreyCallData.sol\":387:536  function exapmles() external{... */\n    tag_3:\n      tag_5\n      tag_6\n      jump\t// in\n    tag_5:\n      stop\n        /* \"storgaeMemoreyCallData.sol\":335:378  mapping(address=>MyStruct) public myStructs */\n    tag_4:\n      tag_7\n      0x04\n      dup1\n      calldatasize\n      sub\n      dup2\n      add\n      swap1\n      tag_8\n      swap2\n      swap1\n      tag_9\n      jump\t// in\n    tag_8:\n      tag_10\n      jump\t// in\n    tag_7:\n      mload(0x40)\n      tag_11\n      swap3\n      swap2\n      swap1\n      tag_12\n      jump\t// in\n    tag_11:\n      mload(0x40)\n      dup1\n      swap2\n      sub\n      swap1\n      return\n        /* \"storgaeMemoreyCallData.sol\":387:536  function exapmles() external{... */\n    tag_6:\n        /* \"storgaeMemoreyCallData.sol\":448:470  MyStruct(123,\"shukla\") */\n      mload(0x40)\n      dup1\n      0x40\n      add\n      0x40\n      mstore\n      dup1\n        /* \"storgaeMemoreyCallData.sol\":457:460  123 */\n      0x7b\n        /* \"storgaeMemoreyCallData.sol\":448:470  MyStruct(123,\"shukla\") */\n      dup2\n      mstore\n      0x20\n      add\n      mload(0x40)\n      dup1\n      0x40\n      add\n      0x40\n      mstore\n      dup1\n      0x06\n      dup2\n      mstore\n      0x20\n      add\n      0x7368756b6c610000000000000000000000000000000000000000000000000000\n      dup2\n      mstore\n      pop\n      dup2\n      mstore\n      pop\n        /* \"storgaeMemoreyCallData.sol\":426:435  myStructs */\n      0x00\n        /* \"storgaeMemoreyCallData.sol\":426:447  myStructs[msg.sender] */\n      dup1\n        /* \"storgaeMemoreyCallData.sol\":436:446  msg.sender */\n      caller\n        /* \"storgaeMemoreyCallData.sol\":426:447  myStructs[msg.sender] */\n      0xffffffffffffffffffffffffffffffffffffffff\n      and\n      0xffffffffffffffffffffffffffffffffffffffff\n      and\n      dup2\n      mstore\n      0x20\n      add\n      swap1\n      dup2\n      mstore\n      0x20\n      add\n      0x00\n      keccak256\n        /* \"storgaeMemoreyCallData.sol\":426:470  myStructs[msg.sender]=MyStruct(123,\"shukla\") */\n      0x00\n      dup3\n      add\n      mload\n      dup2\n      0x00\n      add\n      sstore\n      0x20\n      dup3\n      add\n      mload\n      dup2\n      0x01\n      add\n      swap1\n      dup2\n      tag_14\n      swap2\n      swap1\n      tag_15\n      jump\t// in\n    tag_14:\n      pop\n      swap1\n      pop\n      pop\n        /* \"storgaeMemoreyCallData.sol\":481:506  MyStruct storage myStruct */\n      0x00\n        /* \"storgaeMemoreyCallData.sol\":507:516  myStructs */\n      dup1\n        /* \"storgaeMemoreyCallData.sol\":507:528  myStructs[msg.sender] */\n      0x00\n        /* \"storgaeMemoreyCallData.sol\":517:527  msg.sender */\n      caller\n        /* \"storgaeMemoreyCallData.sol\":507:528  myStructs[msg.sender] */\n      0xffffffffffffffffffffffffffffffffffffffff\n      and\n      0xffffffffffffffffffffffffffffffffffffffff\n      and\n      dup2\n      mstore\n      0x20\n      add\n      swap1\n      dup2\n      mstore\n      0x20\n      add\n      0x00\n      keccak256\n        /* \"storgaeMemoreyCallData.sol\":481:528  MyStruct storage myStruct=myStructs[msg.sender] */\n      swap1\n      pop\n        /* \"storgaeMemoreyCallData.sol\":415:536  {... */\n      pop\n        /* \"storgaeMemoreyCallData.sol\":387:536  function exapmles() external{... */\n      jump\t// out\n        /* \"storgaeMemoreyCallData.sol\":335:378  mapping(address=>MyStruct) public myStructs */\n    tag_10:\n      mstore(0x20, 0x00)\n      dup1\n      0x00\n      mstore\n      keccak256(0x00, 0x40)\n      0x00\n      swap2\n      pop\n      swap1\n      pop\n      dup1\n      0x00\n      add\n      sload\n      swap1\n      dup1\n      0x01\n      add\n      dup1\n      sload\n      tag_16\n      swap1\n      tag_17\n      jump\t// in\n    tag_16:\n      dup1\n      0x1f\n      add\n      0x20\n      dup1\n      swap2\n      div\n      mul\n      0x20\n      add\n      mload(0x40)\n      swap1\n      dup2\n      add\n      0x40\n      mstore\n      dup1\n      swap3\n      swap2\n      swap1\n      dup2\n      dup2\n      mstore\n      0x20\n      add\n      dup3\n      dup1\n      sload\n      tag_18\n      swap1\n      tag_17\n      jump\t// in\n    tag_18:\n      dup1\n      iszero\n      tag_19\n      jumpi\n      dup1\n      0x1f\n      lt\n      tag_20\n      jumpi\n      0x0100\n      dup1\n      dup4\n      sload\n      div\n      mul\n      dup4\n      mstore\n      swap2\n      0x20\n      add\n      swap2\n      jump(tag_19)\n    tag_20:\n      dup3\n      add\n      swap2\n      swap1\n      0x00\n      mstore\n      keccak256(0x00, 0x20)\n      swap1\n    tag_21:\n      dup2\n      sload\n      dup2\n      mstore\n      swap1\n      0x01\n      add\n      swap1\n      0x20\n      add\n      dup1\n      dup4\n      gt\n      tag_21\n      jumpi\n      dup3\n      swap1\n      sub\n      0x1f\n      and\n      dup3\n      add\n      swap2\n    tag_19:\n      pop\n      pop\n      pop\n      pop\n      pop\n      swap1\n      pop\n      dup3\n      jump\t// out\n        /* \"#utility.yul\":88:205   */\n    tag_23:\n        /* \"#utility.yul\":197:198   */\n      0x00\n        /* \"#utility.yul\":194:195   */\n      dup1\n        /* \"#utility.yul\":187:199   */\n      revert\n        /* \"#utility.yul\":334:460   */\n    tag_25:\n        /* \"#utility.yul\":371:378   */\n      0x00\n        /* \"#utility.yul\":411:453   */\n      0xffffffffffffffffffffffffffffffffffffffff\n        /* \"#utility.yul\":404:409   */\n      dup3\n        /* \"#utility.yul\":400:454   */\n      and\n        /* \"#utility.yul\":389:454   */\n      swap1\n      pop\n        /* \"#utility.yul\":334:460   */\n      swap2\n      swap1\n      pop\n      jump\t// out\n        /* \"#utility.yul\":466:562   */\n    tag_26:\n        /* \"#utility.yul\":503:510   */\n      0x00\n        /* \"#utility.yul\":532:556   */\n      tag_59\n        /* \"#utility.yul\":550:555   */\n      dup3\n        /* \"#utility.yul\":532:556   */\n      tag_25\n      jump\t// in\n    tag_59:\n        /* \"#utility.yul\":521:556   */\n      swap1\n      pop\n        /* \"#utility.yul\":466:562   */\n      swap2\n      swap1\n      pop\n      jump\t// out\n        /* \"#utility.yul\":568:690   */\n    tag_27:\n        /* \"#utility.yul\":641:665   */\n      tag_61\n        /* \"#utility.yul\":659:664   */\n      dup2\n        /* \"#utility.yul\":641:665   */\n      tag_26\n      jump\t// in\n    tag_61:\n        /* \"#utility.yul\":634:639   */\n      dup2\n        /* \"#utility.yul\":631:666   */\n      eq\n        /* \"#utility.yul\":621:684   */\n      tag_62\n      jumpi\n        /* \"#utility.yul\":680:681   */\n      0x00\n        /* \"#utility.yul\":677:678   */\n      dup1\n        /* \"#utility.yul\":670:682   */\n      revert\n        /* \"#utility.yul\":621:684   */\n    tag_62:\n        /* \"#utility.yul\":568:690   */\n      pop\n      jump\t// out\n        /* \"#utility.yul\":696:835   */\n    tag_28:\n        /* \"#utility.yul\":742:747   */\n      0x00\n        /* \"#utility.yul\":780:786   */\n      dup2\n        /* \"#utility.yul\":767:787   */\n      calldataload\n        /* \"#utility.yul\":758:787   */\n      swap1\n      pop\n        /* \"#utility.yul\":796:829   */\n      tag_64\n        /* \"#utility.yul\":823:828   */\n      dup2\n        /* \"#utility.yul\":796:829   */\n      tag_27\n      jump\t// in\n    tag_64:\n        /* \"#utility.yul\":696:835   */\n      swap3\n      swap2\n      pop\n      pop\n      jump\t// out\n        /* \"#utility.yul\":841:1170   */\n    tag_9:\n        /* \"#utility.yul\":900:906   */\n      0x00\n        /* \"#utility.yul\":949:951   */\n      0x20\n        /* \"#utility.yul\":937:946   */\n      dup3\n        /* \"#utility.yul\":928:935   */\n      dup5\n        /* \"#utility.yul\":924:947   */\n      sub\n        /* \"#utility.yul\":920:952   */\n      slt\n        /* \"#utility.yul\":917:1036   */\n      iszero\n      tag_66\n      jumpi\n        /* \"#utility.yul\":955:1034   */\n      tag_67\n      tag_23\n      jump\t// in\n    tag_67:\n        /* \"#utility.yul\":917:1036   */\n    tag_66:\n        /* \"#utility.yul\":1075:1076   */\n      0x00\n        /* \"#utility.yul\":1100:1153   */\n      tag_68\n        /* \"#utility.yul\":1145:1152   */\n      dup5\n        /* \"#utility.yul\":1136:1142   */\n      dup3\n        /* \"#utility.yul\":1125:1134   */\n      dup6\n        /* \"#utility.yul\":1121:1143   */\n      add\n        /* \"#utility.yul\":1100:1153   */\n      tag_28\n      jump\t// in\n    tag_68:\n        /* \"#utility.yul\":1090:1153   */\n      swap2\n      pop\n        /* \"#utility.yul\":1046:1163   */\n      pop\n        /* \"#utility.yul\":841:1170   */\n      swap3\n      swap2\n      pop\n      pop\n      jump\t// out\n        /* \"#utility.yul\":1176:1253   */\n    tag_29:\n        /* \"#utility.yul\":1213:1220   */\n      0x00\n        /* \"#utility.yul\":1242:1247   */\n      dup2\n        /* \"#utility.yul\":1231:1247   */\n      swap1\n      pop\n        /* \"#utility.yul\":1176:1253   */\n      swap2\n      swap1\n      pop\n      jump\t// out\n        /* \"#utility.yul\":1259:1377   */\n    tag_30:\n        /* \"#utility.yul\":1346:1370   */\n      tag_71\n        /* \"#utility.yul\":1364:1369   */\n      dup2\n        /* \"#utility.yul\":1346:1370   */\n      tag_29\n      jump\t// in\n    tag_71:\n        /* \"#utility.yul\":1341:1344   */\n      dup3\n        /* \"#utility.yul\":1334:1371   */\n      mstore\n        /* \"#utility.yul\":1259:1377   */\n      pop\n      pop\n      jump\t// out\n        /* \"#utility.yul\":1383:1482   */\n    tag_31:\n        /* \"#utility.yul\":1435:1441   */\n      0x00\n        /* \"#utility.yul\":1469:1474   */\n      dup2\n        /* \"#utility.yul\":1463:1475   */\n      mload\n        /* \"#utility.yul\":1453:1475   */\n      swap1\n      pop\n        /* \"#utility.yul\":1383:1482   */\n      swap2\n      swap1\n      pop\n      jump\t// out\n        /* \"#utility.yul\":1488:1657   */\n    tag_32:\n        /* \"#utility.yul\":1572:1583   */\n      0x00\n        /* \"#utility.yul\":1606:1612   */\n      dup3\n        /* \"#utility.yul\":1601:1604   */\n      dup3\n        /* \"#utility.yul\":1594:1613   */\n      mstore\n        /* \"#utility.yul\":1646:1650   */\n      0x20\n        /* \"#utility.yul\":1641:1644   */\n      dup3\n        /* \"#utility.yul\":1637:1651   */\n      add\n        /* \"#utility.yul\":1622:1651   */\n      swap1\n      pop\n        /* \"#utility.yul\":1488:1657   */\n      swap3\n      swap2\n      pop\n      pop\n      jump\t// out\n        /* \"#utility.yul\":1663:1909   */\n    tag_33:\n        /* \"#utility.yul\":1744:1745   */\n      0x00\n        /* \"#utility.yul\":1754:1867   */\n    tag_75:\n        /* \"#utility.yul\":1768:1774   */\n      dup4\n        /* \"#utility.yul\":1765:1766   */\n      dup2\n        /* \"#utility.yul\":1762:1775   */\n      lt\n        /* \"#utility.yul\":1754:1867   */\n      iszero\n      tag_77\n      jumpi\n        /* \"#utility.yul\":1853:1854   */\n      dup1\n        /* \"#utility.yul\":1848:1851   */\n      dup3\n        /* \"#utility.yul\":1844:1855   */\n      add\n        /* \"#utility.yul\":1838:1856   */\n      mload\n        /* \"#utility.yul\":1834:1835   */\n      dup2\n        /* \"#utility.yul\":1829:1832   */\n      dup5\n        /* \"#utility.yul\":1825:1836   */\n      add\n        /* \"#utility.yul\":1818:1857   */\n      mstore\n        /* \"#utility.yul\":1790:1792   */\n      0x20\n        /* \"#utility.yul\":1787:1788   */\n      dup2\n        /* \"#utility.yul\":1783:1793   */\n      add\n        /* \"#utility.yul\":1778:1793   */\n      swap1\n      pop\n        /* \"#utility.yul\":1754:1867   */\n      jump(tag_75)\n    tag_77:\n        /* \"#utility.yul\":1901:1902   */\n      0x00\n        /* \"#utility.yul\":1892:1898   */\n      dup5\n        /* \"#utility.yul\":1887:1890   */\n      dup5\n        /* \"#utility.yul\":1883:1899   */\n      add\n        /* \"#utility.yul\":1876:1903   */\n      mstore\n        /* \"#utility.yul\":1725:1909   */\n      pop\n        /* \"#utility.yul\":1663:1909   */\n      pop\n      pop\n      pop\n      jump\t// out\n        /* \"#utility.yul\":1915:2017   */\n    tag_34:\n        /* \"#utility.yul\":1956:1962   */\n      0x00\n        /* \"#utility.yul\":2007:2009   */\n      0x1f\n        /* \"#utility.yul\":2003:2010   */\n      not\n        /* \"#utility.yul\":1998:2000   */\n      0x1f\n        /* \"#utility.yul\":1991:1996   */\n      dup4\n        /* \"#utility.yul\":1987:2001   */\n      add\n        /* \"#utility.yul\":1983:2011   */\n      and\n        /* \"#utility.yul\":1973:2011   */\n      swap1\n      pop\n        /* \"#utility.yul\":1915:2017   */\n      swap2\n      swap1\n      pop\n      jump\t// out\n        /* \"#utility.yul\":2023:2400   */\n    tag_35:\n        /* \"#utility.yul\":2111:2114   */\n      0x00\n        /* \"#utility.yul\":2139:2178   */\n      tag_80\n        /* \"#utility.yul\":2172:2177   */\n      dup3\n        /* \"#utility.yul\":2139:2178   */\n      tag_31\n      jump\t// in\n    tag_80:\n        /* \"#utility.yul\":2194:2265   */\n      tag_81\n        /* \"#utility.yul\":2258:2264   */\n      dup2\n        /* \"#utility.yul\":2253:2256   */\n      dup6\n        /* \"#utility.yul\":2194:2265   */\n      tag_32\n      jump\t// in\n    tag_81:\n        /* \"#utility.yul\":2187:2265   */\n      swap4\n      pop\n        /* \"#utility.yul\":2274:2339   */\n      tag_82\n        /* \"#utility.yul\":2332:2338   */\n      dup2\n        /* \"#utility.yul\":2327:2330   */\n      dup6\n        /* \"#utility.yul\":2320:2324   */\n      0x20\n        /* \"#utility.yul\":2313:2318   */\n      dup7\n        /* \"#utility.yul\":2309:2325   */\n      add\n        /* \"#utility.yul\":2274:2339   */\n      tag_33\n      jump\t// in\n    tag_82:\n        /* \"#utility.yul\":2364:2393   */\n      tag_83\n        /* \"#utility.yul\":2386:2392   */\n      dup2\n        /* \"#utility.yul\":2364:2393   */\n      tag_34\n      jump\t// in\n    tag_83:\n        /* \"#utility.yul\":2359:2362   */\n      dup5\n        /* \"#utility.yul\":2355:2394   */\n      add\n        /* \"#utility.yul\":2348:2394   */\n      swap2\n      pop\n        /* \"#utility.yul\":2115:2400   */\n      pop\n        /* \"#utility.yul\":2023:2400   */\n      swap3\n      swap2\n      pop\n      pop\n      jump\t// out\n        /* \"#utility.yul\":2406:2829   */\n    tag_12:\n        /* \"#utility.yul\":2547:2551   */\n      0x00\n        /* \"#utility.yul\":2585:2587   */\n      0x40\n        /* \"#utility.yul\":2574:2583   */\n      dup3\n        /* \"#utility.yul\":2570:2588   */\n      add\n        /* \"#utility.yul\":2562:2588   */\n      swap1\n      pop\n        /* \"#utility.yul\":2598:2669   */\n      tag_85\n        /* \"#utility.yul\":2666:2667   */\n      0x00\n        /* \"#utility.yul\":2655:2664   */\n      dup4\n        /* \"#utility.yul\":2651:2668   */\n      add\n        /* \"#utility.yul\":2642:2648   */\n      dup6\n        /* \"#utility.yul\":2598:2669   */\n      tag_30\n      jump\t// in\n    tag_85:\n        /* \"#utility.yul\":2716:2725   */\n      dup2\n        /* \"#utility.yul\":2710:2714   */\n      dup2\n        /* \"#utility.yul\":2706:2726   */\n      sub\n        /* \"#utility.yul\":2701:2703   */\n      0x20\n        /* \"#utility.yul\":2690:2699   */\n      dup4\n        /* \"#utility.yul\":2686:2704   */\n      add\n        /* \"#utility.yul\":2679:2727   */\n      mstore\n        /* \"#utility.yul\":2744:2822   */\n      tag_86\n        /* \"#utility.yul\":2817:2821   */\n      dup2\n        /* \"#utility.yul\":2808:2814   */\n      dup5\n        /* \"#utility.yul\":2744:2822   */\n      tag_35\n      jump\t// in\n    tag_86:\n        /* \"#utility.yul\":2736:2822   */\n      swap1\n      pop\n        /* \"#utility.yul\":2406:2829   */\n      swap4\n      swap3\n      pop\n      pop\n      pop\n      jump\t// out\n        /* \"#utility.yul\":2835:3015   */\n    tag_36:\n        /* \"#utility.yul\":2883:2960   */\n      0x4e487b7100000000000000000000000000000000000000000000000000000000\n        /* \"#utility.yul\":2880:2881   */\n      0x00\n        /* \"#utility.yul\":2873:2961   */\n      mstore\n        /* \"#utility.yul\":2980:2984   */\n      0x41\n        /* \"#utility.yul\":2977:2978   */\n      0x04\n        /* \"#utility.yul\":2970:2985   */\n      mstore\n        /* \"#utility.yul\":3004:3008   */\n      0x24\n        /* \"#utility.yul\":3001:3002   */\n      0x00\n        /* \"#utility.yul\":2994:3009   */\n      revert\n        /* \"#utility.yul\":3021:3201   */\n    tag_37:\n        /* \"#utility.yul\":3069:3146   */\n      0x4e487b7100000000000000000000000000000000000000000000000000000000\n        /* \"#utility.yul\":3066:3067   */\n      0x00\n        /* \"#utility.yul\":3059:3147   */\n      mstore\n        /* \"#utility.yul\":3166:3170   */\n      0x22\n        /* \"#utility.yul\":3163:3164   */\n      0x04\n        /* \"#utility.yul\":3156:3171   */\n      mstore\n        /* \"#utility.yul\":3190:3194   */\n      0x24\n        /* \"#utility.yul\":3187:3188   */\n      0x00\n        /* \"#utility.yul\":3180:3195   */\n      revert\n        /* \"#utility.yul\":3207:3527   */\n    tag_17:\n        /* \"#utility.yul\":3251:3257   */\n      0x00\n        /* \"#utility.yul\":3288:3289   */\n      0x02\n        /* \"#utility.yul\":3282:3286   */\n      dup3\n        /* \"#utility.yul\":3278:3290   */\n      div\n        /* \"#utility.yul\":3268:3290   */\n      swap1\n      pop\n        /* \"#utility.yul\":3335:3336   */\n      0x01\n        /* \"#utility.yul\":3329:3333   */\n      dup3\n        /* \"#utility.yul\":3325:3337   */\n      and\n        /* \"#utility.yul\":3356:3374   */\n      dup1\n        /* \"#utility.yul\":3346:3427   */\n      tag_90\n      jumpi\n        /* \"#utility.yul\":3412:3416   */\n      0x7f\n        /* \"#utility.yul\":3404:3410   */\n      dup3\n        /* \"#utility.yul\":3400:3417   */\n      and\n        /* \"#utility.yul\":3390:3417   */\n      swap2\n      pop\n        /* \"#utility.yul\":3346:3427   */\n    tag_90:\n        /* \"#utility.yul\":3474:3476   */\n      0x20\n        /* \"#utility.yul\":3466:3472   */\n      dup3\n        /* \"#utility.yul\":3463:3477   */\n      lt\n        /* \"#utility.yul\":3443:3461   */\n      dup2\n        /* \"#utility.yul\":3440:3478   */\n      sub\n        /* \"#utility.yul\":3437:3521   */\n      tag_91\n      jumpi\n        /* \"#utility.yul\":3493:3511   */\n      tag_92\n      tag_37\n      jump\t// in\n    tag_92:\n        /* \"#utility.yul\":3437:3521   */\n    tag_91:\n        /* \"#utility.yul\":3258:3527   */\n      pop\n        /* \"#utility.yul\":3207:3527   */\n      swap2\n      swap1\n      pop\n      jump\t// out\n        /* \"#utility.yul\":3533:3674   */\n    tag_38:\n        /* \"#utility.yul\":3582:3586   */\n      0x00\n        /* \"#utility.yul\":3605:3608   */\n      dup2\n        /* \"#utility.yul\":3597:3608   */\n      swap1\n      pop\n        /* \"#utility.yul\":3628:3631   */\n      dup2\n        /* \"#utility.yul\":3625:3626   */\n      0x00\n        /* \"#utility.yul\":3618:3632   */\n      mstore\n        /* \"#utility.yul\":3662:3666   */\n      0x20\n        /* \"#utility.yul\":3659:3660   */\n      0x00\n        /* \"#utility.yul\":3649:3667   */\n      keccak256\n        /* \"#utility.yul\":3641:3667   */\n      swap1\n      pop\n        /* \"#utility.yul\":3533:3674   */\n      swap2\n      swap1\n      pop\n      jump\t// out\n        /* \"#utility.yul\":3680:3773   */\n    tag_39:\n        /* \"#utility.yul\":3717:3723   */\n      0x00\n        /* \"#utility.yul\":3764:3766   */\n      0x20\n        /* \"#utility.yul\":3759:3761   */\n      0x1f\n        /* \"#utility.yul\":3752:3757   */\n      dup4\n        /* \"#utility.yul\":3748:3762   */\n      add\n        /* \"#utility.yul\":3744:3767   */\n      div\n        /* \"#utility.yul\":3734:3767   */\n      swap1\n      pop\n        /* \"#utility.yul\":3680:3773   */\n      swap2\n      swap1\n      pop\n      jump\t// out\n        /* \"#utility.yul\":3779:3886   */\n    tag_40:\n        /* \"#utility.yul\":3823:3831   */\n      0x00\n        /* \"#utility.yul\":3873:3878   */\n      dup3\n        /* \"#utility.yul\":3867:3871   */\n      dup3\n        /* \"#utility.yul\":3863:3879   */\n      shl\n        /* \"#utility.yul\":3842:3879   */\n      swap1\n      pop\n        /* \"#utility.yul\":3779:3886   */\n      swap3\n      swap2\n      pop\n      pop\n      jump\t// out\n        /* \"#utility.yul\":3892:4285   */\n    tag_41:\n        /* \"#utility.yul\":3961:3967   */\n      0x00\n        /* \"#utility.yul\":4011:4012   */\n      0x08\n        /* \"#utility.yul\":3999:4009   */\n      dup4\n        /* \"#utility.yul\":3995:4013   */\n      mul\n        /* \"#utility.yul\":4034:4131   */\n      tag_97\n        /* \"#utility.yul\":4064:4130   */\n      0xffffffffffffffffffffffffffffffffffffffffffffffffffffffffffffffff\n        /* \"#utility.yul\":4053:4062   */\n      dup3\n        /* \"#utility.yul\":4034:4131   */\n      tag_40\n      jump\t// in\n    tag_97:\n        /* \"#utility.yul\":4152:4191   */\n      tag_98\n        /* \"#utility.yul\":4182:4190   */\n      dup7\n        /* \"#utility.yul\":4171:4180   */\n      dup4\n        /* \"#utility.yul\":4152:4191   */\n      tag_40\n      jump\t// in\n    tag_98:\n        /* \"#utility.yul\":4140:4191   */\n      swap6\n      pop\n        /* \"#utility.yul\":4224:4228   */\n      dup1\n        /* \"#utility.yul\":4220:4229   */\n      not\n        /* \"#utility.yul\":4213:4218   */\n      dup5\n        /* \"#utility.yul\":4209:4230   */\n      and\n        /* \"#utility.yul\":4200:4230   */\n      swap4\n      pop\n        /* \"#utility.yul\":4273:4277   */\n      dup1\n        /* \"#utility.yul\":4263:4271   */\n      dup7\n        /* \"#utility.yul\":4259:4278   */\n      and\n        /* \"#utility.yul\":4252:4257   */\n      dup5\n        /* \"#utility.yul\":4249:4279   */\n      or\n        /* \"#utility.yul\":4239:4279   */\n      swap3\n      pop\n        /* \"#utility.yul\":3968:4285   */\n      pop\n      pop\n        /* \"#utility.yul\":3892:4285   */\n      swap4\n      swap3\n      pop\n      pop\n      pop\n      jump\t// out\n        /* \"#utility.yul\":4291:4351   */\n    tag_42:\n        /* \"#utility.yul\":4319:4322   */\n      0x00\n        /* \"#utility.yul\":4340:4345   */\n      dup2\n        /* \"#utility.yul\":4333:4345   */\n      swap1\n      pop\n        /* \"#utility.yul\":4291:4351   */\n      swap2\n      swap1\n      pop\n      jump\t// out\n        /* \"#utility.yul\":4357:4499   */\n    tag_43:\n        /* \"#utility.yul\":4407:4416   */\n      0x00\n        /* \"#utility.yul\":4440:4493   */\n      tag_101\n        /* \"#utility.yul\":4458:4492   */\n      tag_102\n        /* \"#utility.yul\":4467:4491   */\n      tag_103\n        /* \"#utility.yul\":4485:4490   */\n      dup5\n        /* \"#utility.yul\":4467:4491   */\n      tag_29\n      jump\t// in\n    tag_103:\n        /* \"#utility.yul\":4458:4492   */\n      tag_42\n      jump\t// in\n    tag_102:\n        /* \"#utility.yul\":4440:4493   */\n      tag_29\n      jump\t// in\n    tag_101:\n        /* \"#utility.yul\":4427:4493   */\n      swap1\n      pop\n        /* \"#utility.yul\":4357:4499   */\n      swap2\n      swap1\n      pop\n      jump\t// out\n        /* \"#utility.yul\":4505:4580   */\n    tag_44:\n        /* \"#utility.yul\":4548:4551   */\n      0x00\n        /* \"#utility.yul\":4569:4574   */\n      dup2\n        /* \"#utility.yul\":4562:4574   */\n      swap1\n      pop\n        /* \"#utility.yul\":4505:4580   */\n      swap2\n      swap1\n      pop\n      jump\t// out\n        /* \"#utility.yul\":4586:4855   */\n    tag_45:\n        /* \"#utility.yul\":4696:4735   */\n      tag_106\n        /* \"#utility.yul\":4727:4734   */\n      dup4\n        /* \"#utility.yul\":4696:4735   */\n      tag_43\n      jump\t// in\n    tag_106:\n        /* \"#utility.yul\":4757:4848   */\n      tag_107\n        /* \"#utility.yul\":4806:4847   */\n      tag_108\n        /* \"#utility.yul\":4830:4846   */\n      dup3\n        /* \"#utility.yul\":4806:4847   */\n      tag_44\n      jump\t// in\n    tag_108:\n        /* \"#utility.yul\":4798:4804   */\n      dup5\n        /* \"#utility.yul\":4791:4795   */\n      dup5\n        /* \"#utility.yul\":4785:4796   */\n      sload\n        /* \"#utility.yul\":4757:4848   */\n      tag_41\n      jump\t// in\n    tag_107:\n        /* \"#utility.yul\":4751:4755   */\n      dup3\n        /* \"#utility.yul\":4744:4849   */\n      sstore\n        /* \"#utility.yul\":4662:4855   */\n      pop\n        /* \"#utility.yul\":4586:4855   */\n      pop\n      pop\n      pop\n      jump\t// out\n        /* \"#utility.yul\":4861:4934   */\n    tag_46:\n        /* \"#utility.yul\":4906:4909   */\n      0x00\n        /* \"#utility.yul\":4861:4934   */\n      swap1\n      jump\t// out\n        /* \"#utility.yul\":4940:5129   */\n    tag_47:\n        /* \"#utility.yul\":5017:5049   */\n      tag_111\n      tag_46\n      jump\t// in\n    tag_111:\n        /* \"#utility.yul\":5058:5123   */\n      tag_112\n        /* \"#utility.yul\":5116:5122   */\n      dup2\n        /* \"#utility.yul\":5108:5114   */\n      dup5\n        /* \"#utility.yul\":5102:5106   */\n      dup5\n        /* \"#utility.yul\":5058:5123   */\n      tag_45\n      jump\t// in\n    tag_112:\n        /* \"#utility.yul\":4993:5129   */\n      pop\n        /* \"#utility.yul\":4940:5129   */\n      pop\n      pop\n      jump\t// out\n        /* \"#utility.yul\":5135:5321   */\n    tag_48:\n        /* \"#utility.yul\":5195:5315   */\n    tag_114:\n        /* \"#utility.yul\":5212:5215   */\n      dup2\n        /* \"#utility.yul\":5205:5210   */\n      dup2\n        /* \"#utility.yul\":5202:5216   */\n      lt\n        /* \"#utility.yul\":5195:5315   */\n      iszero\n      tag_116\n      jumpi\n        /* \"#utility.yul\":5266:5305   */\n      tag_117\n        /* \"#utility.yul\":5303:5304   */\n      0x00\n        /* \"#utility.yul\":5296:5301   */\n      dup3\n        /* \"#utility.yul\":5266:5305   */\n      tag_47\n      jump\t// in\n    tag_117:\n        /* \"#utility.yul\":5239:5240   */\n      0x01\n        /* \"#utility.yul\":5232:5237   */\n      dup2\n        /* \"#utility.yul\":5228:5241   */\n      add\n        /* \"#utility.yul\":5219:5241   */\n      swap1\n      pop\n        /* \"#utility.yul\":5195:5315   */\n      jump(tag_114)\n    tag_116:\n        /* \"#utility.yul\":5135:5321   */\n      pop\n      pop\n      jump\t// out\n        /* \"#utility.yul\":5327:5870   */\n    tag_49:\n        /* \"#utility.yul\":5428:5430   */\n      0x1f\n        /* \"#utility.yul\":5423:5426   */\n      dup3\n        /* \"#utility.yul\":5420:5431   */\n      gt\n        /* \"#utility.yul\":5417:5863   */\n      iszero\n      tag_119\n      jumpi\n        /* \"#utility.yul\":5462:5500   */\n      tag_120\n        /* \"#utility.yul\":5494:5499   */\n      dup2\n        /* \"#utility.yul\":5462:5500   */\n      tag_38\n      jump\t// in\n    tag_120:\n        /* \"#utility.yul\":5546:5575   */\n      tag_121\n        /* \"#utility.yul\":5564:5574   */\n      dup5\n        /* \"#utility.yul\":5546:5575   */\n      tag_39\n      jump\t// in\n    tag_121:\n        /* \"#utility.yul\":5536:5544   */\n      dup2\n        /* \"#utility.yul\":5532:5576   */\n      add\n        /* \"#utility.yul\":5729:5731   */\n      0x20\n        /* \"#utility.yul\":5717:5727   */\n      dup6\n        /* \"#utility.yul\":5714:5732   */\n      lt\n        /* \"#utility.yul\":5711:5760   */\n      iszero\n      tag_122\n      jumpi\n        /* \"#utility.yul\":5750:5758   */\n      dup2\n        /* \"#utility.yul\":5735:5758   */\n      swap1\n      pop\n        /* \"#utility.yul\":5711:5760   */\n    tag_122:\n        /* \"#utility.yul\":5773:5853   */\n      tag_123\n        /* \"#utility.yul\":5829:5851   */\n      tag_124\n        /* \"#utility.yul\":5847:5850   */\n      dup6\n        /* \"#utility.yul\":5829:5851   */\n      tag_39\n      jump\t// in\n    tag_124:\n        /* \"#utility.yul\":5819:5827   */\n      dup4\n        /* \"#utility.yul\":5815:5852   */\n      add\n        /* \"#utility.yul\":5802:5813   */\n      dup3\n        /* \"#utility.yul\":5773:5853   */\n      tag_48\n      jump\t// in\n    tag_123:\n        /* \"#utility.yul\":5432:5863   */\n      pop\n      pop\n        /* \"#utility.yul\":5417:5863   */\n    tag_119:\n        /* \"#utility.yul\":5327:5870   */\n      pop\n      pop\n      pop\n      jump\t// out\n        /* \"#utility.yul\":5876:5993   */\n    tag_50:\n        /* \"#utility.yul\":5930:5938   */\n      0x00\n        /* \"#utility.yul\":5980:5985   */\n      dup3\n        /* \"#utility.yul\":5974:5978   */\n      dup3\n        /* \"#utility.yul\":5970:5986   */\n      shr\n        /* \"#utility.yul\":5949:5986   */\n      swap1\n      pop\n        /* \"#utility.yul\":5876:5993   */\n      swap3\n      swap2\n      pop\n      pop\n      jump\t// out\n        /* \"#utility.yul\":5999:6168   */\n    tag_51:\n        /* \"#utility.yul\":6043:6049   */\n      0x00\n        /* \"#utility.yul\":6076:6127   */\n      tag_127\n        /* \"#utility.yul\":6124:6125   */\n      0x00\n        /* \"#utility.yul\":6120:6126   */\n      not\n        /* \"#utility.yul\":6112:6117   */\n      dup5\n        /* \"#utility.yul\":6109:6110   */\n      0x08\n        /* \"#utility.yul\":6105:6118   */\n      mul\n        /* \"#utility.yul\":6076:6127   */\n      tag_50\n      jump\t// in\n    tag_127:\n        /* \"#utility.yul\":6072:6128   */\n      not\n        /* \"#utility.yul\":6157:6161   */\n      dup1\n        /* \"#utility.yul\":6151:6155   */\n      dup4\n        /* \"#utility.yul\":6147:6162   */\n      and\n        /* \"#utility.yul\":6137:6162   */\n      swap2\n      pop\n        /* \"#utility.yul\":6050:6168   */\n      pop\n        /* \"#utility.yul\":5999:6168   */\n      swap3\n      swap2\n      pop\n      pop\n      jump\t// out\n        /* \"#utility.yul\":6173:6468   */\n    tag_52:\n        /* \"#utility.yul\":6249:6253   */\n      0x00\n        /* \"#utility.yul\":6395:6424   */\n      tag_129\n        /* \"#utility.yul\":6420:6423   */\n      dup4\n        /* \"#utility.yul\":6414:6418   */\n      dup4\n        /* \"#utility.yul\":6395:6424   */\n      tag_51\n      jump\t// in\n    tag_129:\n        /* \"#utility.yul\":6387:6424   */\n      swap2\n      pop\n        /* \"#utility.yul\":6457:6460   */\n      dup3\n        /* \"#utility.yul\":6454:6455   */\n      0x02\n        /* \"#utility.yul\":6450:6461   */\n      mul\n        /* \"#utility.yul\":6444:6448   */\n      dup3\n        /* \"#utility.yul\":6441:6462   */\n      or\n        /* \"#utility.yul\":6433:6462   */\n      swap1\n      pop\n        /* \"#utility.yul\":6173:6468   */\n      swap3\n      swap2\n      pop\n      pop\n      jump\t// out\n        /* \"#utility.yul\":6473:7868   */\n    tag_15:\n        /* \"#utility.yul\":6590:6627   */\n      tag_131\n        /* \"#utility.yul\":6623:6626   */\n      dup3\n        /* \"#utility.yul\":6590:6627   */\n      tag_31\n      jump\t// in\n    tag_131:\n        /* \"#utility.yul\":6692:6710   */\n      0xffffffffffffffff\n        /* \"#utility.yul\":6684:6690   */\n      dup2\n        /* \"#utility.yul\":6681:6711   */\n      gt\n        /* \"#utility.yul\":6678:6734   */\n      iszero\n      tag_132\n      jumpi\n        /* \"#utility.yul\":6714:6732   */\n      tag_133\n      tag_36\n      jump\t// in\n    tag_133:\n        /* \"#utility.yul\":6678:6734   */\n    tag_132:\n        /* \"#utility.yul\":6758:6796   */\n      tag_134\n        /* \"#utility.yul\":6790:6794   */\n      dup3\n        /* \"#utility.yul\":6784:6795   */\n      sload\n        /* \"#utility.yul\":6758:6796   */\n      tag_17\n      jump\t// in\n    tag_134:\n        /* \"#utility.yul\":6843:6910   */\n      tag_135\n        /* \"#utility.yul\":6903:6909   */\n      dup3\n        /* \"#utility.yul\":6895:6901   */\n      dup3\n        /* \"#utility.yul\":6889:6893   */\n      dup6\n        /* \"#utility.yul\":6843:6910   */\n      tag_49\n      jump\t// in\n    tag_135:\n        /* \"#utility.yul\":6937:6938   */\n      0x00\n        /* \"#utility.yul\":6961:6965   */\n      0x20\n        /* \"#utility.yul\":6948:6965   */\n      swap1\n      pop\n        /* \"#utility.yul\":6993:6995   */\n      0x1f\n        /* \"#utility.yul\":6985:6991   */\n      dup4\n        /* \"#utility.yul\":6982:6996   */\n      gt\n        /* \"#utility.yul\":7010:7011   */\n      0x01\n        /* \"#utility.yul\":7005:7623   */\n      dup2\n      eq\n      tag_137\n      jumpi\n        /* \"#utility.yul\":7667:7668   */\n      0x00\n        /* \"#utility.yul\":7684:7690   */\n      dup5\n        /* \"#utility.yul\":7681:7758   */\n      iszero\n      tag_138\n      jumpi\n        /* \"#utility.yul\":7733:7742   */\n      dup3\n        /* \"#utility.yul\":7728:7731   */\n      dup8\n        /* \"#utility.yul\":7724:7743   */\n      add\n        /* \"#utility.yul\":7718:7744   */\n      mload\n        /* \"#utility.yul\":7709:7744   */\n      swap1\n      pop\n        /* \"#utility.yul\":7681:7758   */\n    tag_138:\n        /* \"#utility.yul\":7784:7851   */\n      tag_139\n        /* \"#utility.yul\":7844:7850   */\n      dup6\n        /* \"#utility.yul\":7837:7842   */\n      dup3\n        /* \"#utility.yul\":7784:7851   */\n      tag_52\n      jump\t// in\n    tag_139:\n        /* \"#utility.yul\":7778:7782   */\n      dup7\n        /* \"#utility.yul\":7771:7852   */\n      sstore\n        /* \"#utility.yul\":7640:7862   */\n      pop\n        /* \"#utility.yul\":6975:7862   */\n      jump(tag_136)\n        /* \"#utility.yul\":7005:7623   */\n    tag_137:\n        /* \"#utility.yul\":7057:7061   */\n      0x1f\n        /* \"#utility.yul\":7053:7062   */\n      not\n        /* \"#utility.yul\":7045:7051   */\n      dup5\n        /* \"#utility.yul\":7041:7063   */\n      and\n        /* \"#utility.yul\":7091:7128   */\n      tag_140\n        /* \"#utility.yul\":7123:7127   */\n      dup7\n        /* \"#utility.yul\":7091:7128   */\n      tag_38\n      jump\t// in\n    tag_140:\n        /* \"#utility.yul\":7150:7151   */\n      0x00\n        /* \"#utility.yul\":7164:7372   */\n    tag_141:\n        /* \"#utility.yul\":7178:7185   */\n      dup3\n        /* \"#utility.yul\":7175:7176   */\n      dup2\n        /* \"#utility.yul\":7172:7186   */\n      lt\n        /* \"#utility.yul\":7164:7372   */\n      iszero\n      tag_143\n      jumpi\n        /* \"#utility.yul\":7257:7266   */\n      dup5\n        /* \"#utility.yul\":7252:7255   */\n      dup10\n        /* \"#utility.yul\":7248:7267   */\n      add\n        /* \"#utility.yul\":7242:7268   */\n      mload\n        /* \"#utility.yul\":7234:7240   */\n      dup3\n        /* \"#utility.yul\":7227:7269   */\n      sstore\n        /* \"#utility.yul\":7308:7309   */\n      0x01\n        /* \"#utility.yul\":7300:7306   */\n      dup3\n        /* \"#utility.yul\":7296:7310   */\n      add\n        /* \"#utility.yul\":7286:7310   */\n      swap2\n      pop\n        /* \"#utility.yul\":7355:7357   */\n      0x20\n        /* \"#utility.yul\":7344:7353   */\n      dup6\n        /* \"#utility.yul\":7340:7358   */\n      add\n        /* \"#utility.yul\":7327:7358   */\n      swap5\n      pop\n        /* \"#utility.yul\":7201:7205   */\n      0x20\n        /* \"#utility.yul\":7198:7199   */\n      dup2\n        /* \"#utility.yul\":7194:7206   */\n      add\n        /* \"#utility.yul\":7189:7206   */\n      swap1\n      pop\n        /* \"#utility.yul\":7164:7372   */\n      jump(tag_141)\n    tag_143:\n        /* \"#utility.yul\":7400:7406   */\n      dup7\n        /* \"#utility.yul\":7391:7398   */\n      dup4\n        /* \"#utility.yul\":7388:7407   */\n      lt\n        /* \"#utility.yul\":7385:7564   */\n      iszero\n      tag_144\n      jumpi\n        /* \"#utility.yul\":7458:7467   */\n      dup5\n        /* \"#utility.yul\":7453:7456   */\n      dup10\n        /* \"#utility.yul\":7449:7468   */\n      add\n        /* \"#utility.yul\":7443:7469   */\n      mload\n        /* \"#utility.yul\":7501:7549   */\n      tag_145\n        /* \"#utility.yul\":7543:7547   */\n      0x1f\n        /* \"#utility.yul\":7535:7541   */\n      dup10\n        /* \"#utility.yul\":7531:7548   */\n      and\n        /* \"#utility.yul\":7520:7529   */\n      dup3\n        /* \"#utility.yul\":7501:7549   */\n      tag_51\n      jump\t// in\n    tag_145:\n        /* \"#utility.yul\":7493:7499   */\n      dup4\n        /* \"#utility.yul\":7486:7550   */\n      sstore\n        /* \"#utility.yul\":7408:7564   */\n      pop\n        /* \"#utility.yul\":7385:7564   */\n    tag_144:\n        /* \"#utility.yul\":7610:7611   */\n      0x01\n        /* \"#utility.yul\":7606:7607   */\n      0x02\n        /* \"#utility.yul\":7598:7604   */\n      dup9\n        /* \"#utility.yul\":7594:7608   */\n      mul\n        /* \"#utility.yul\":7590:7612   */\n      add\n        /* \"#utility.yul\":7584:7588   */\n      dup9\n        /* \"#utility.yul\":7577:7613   */\n      sstore\n        /* \"#utility.yul\":7012:7623   */\n      pop\n      pop\n      pop\n        /* \"#utility.yul\":6975:7862   */\n    tag_136:\n      pop\n        /* \"#utility.yul\":6565:7868   */\n      pop\n      pop\n      pop\n        /* \"#utility.yul\":6473:7868   */\n      pop\n      pop\n      jump\t// out\n\n    auxdata: 0xa2646970667358221220e9e9a2f651978f4a41ad35361bb2cdfe3f64d9e8cf042d3e09ef98508902413164736f6c63430008120033\n}\n",
				"bytecode": {
					"linkReferences": {},
					"object": "608060405234801561001057600080fd5b506106bf806100206000396000f3fe608060405234801561001057600080fd5b50600436106100365760003560e01c80634d1c3e331461003b578063b43c5d3314610045575b600080fd5b610043610076565b005b61005f600480360381019061005a9190610276565b610167565b60405161006d92919061034c565b60405180910390f35b6040518060400160405280607b81526020016040518060400160405280600681526020017f7368756b6c6100000000000000000000000000000000000000000000000000008152508152506000803373ffffffffffffffffffffffffffffffffffffffff1673ffffffffffffffffffffffffffffffffffffffff16815260200190815260200160002060008201518160000155602082015181600101908161011e91906105b7565b5090505060008060003373ffffffffffffffffffffffffffffffffffffffff1673ffffffffffffffffffffffffffffffffffffffff168152602001908152602001600020905050565b6000602052806000526040600020600091509050806000015490806001018054610190906103da565b80601f01602080910402602001604051908101604052809291908181526020018280546101bc906103da565b80156102095780601f106101de57610100808354040283529160200191610209565b820191906000526020600020905b8154815290600101906020018083116101ec57829003601f168201915b5050505050905082565b600080fd5b600073ffffffffffffffffffffffffffffffffffffffff82169050919050565b600061024382610218565b9050919050565b61025381610238565b811461025e57600080fd5b50565b6000813590506102708161024a565b92915050565b60006020828403121561028c5761028b610213565b5b600061029a84828501610261565b91505092915050565b6000819050919050565b6102b6816102a3565b82525050565b600081519050919050565b600082825260208201905092915050565b60005b838110156102f65780820151818401526020810190506102db565b60008484015250505050565b6000601f19601f8301169050919050565b600061031e826102bc565b61032881856102c7565b93506103388185602086016102d8565b61034181610302565b840191505092915050565b600060408201905061036160008301856102ad565b81810360208301526103738184610313565b90509392505050565b7f4e487b7100000000000000000000000000000000000000000000000000000000600052604160045260246000fd5b7f4e487b7100000000000000000000000000000000000000000000000000000000600052602260045260246000fd5b600060028204905060018216806103f257607f821691505b602082108103610405576104046103ab565b5b50919050565b60008190508160005260206000209050919050565b60006020601f8301049050919050565b600082821b905092915050565b60006008830261046d7fffffffffffffffffffffffffffffffffffffffffffffffffffffffffffffffff82610430565b6104778683610430565b95508019841693508086168417925050509392505050565b6000819050919050565b60006104b46104af6104aa846102a3565b61048f565b6102a3565b9050919050565b6000819050919050565b6104ce83610499565b6104e26104da826104bb565b84845461043d565b825550505050565b600090565b6104f76104ea565b6105028184846104c5565b505050565b5b818110156105265761051b6000826104ef565b600181019050610508565b5050565b601f82111561056b5761053c8161040b565b61054584610420565b81016020851015610554578190505b61056861056085610420565b830182610507565b50505b505050565b600082821c905092915050565b600061058e60001984600802610570565b1980831691505092915050565b60006105a7838361057d565b9150826002028217905092915050565b6105c0826102bc565b67ffffffffffffffff8111156105d9576105d861037c565b5b6105e382546103da565b6105ee82828561052a565b600060209050601f831160018114610621576000841561060f578287015190505b610619858261059b565b865550610681565b601f19841661062f8661040b565b60005b8281101561065757848901518255600182019150602085019450602081019050610632565b868310156106745784890151610670601f89168261057d565b8355505b6001600288020188555050505b50505050505056fea2646970667358221220e9e9a2f651978f4a41ad35361bb2cdfe3f64d9e8cf042d3e09ef98508902413164736f6c63430008120033",
					"opcodes": "PUSH1 0x80 PUSH1 0x40 MSTORE CALLVALUE DUP1 ISZERO PUSH2 0x10 JUMPI PUSH1 0x0 DUP1 REVERT JUMPDEST POP PUSH2 0x6BF DUP1 PUSH2 0x20 PUSH1 0x0 CODECOPY PUSH1 0x0 RETURN INVALID PUSH1 0x80 PUSH1 0x40 MSTORE CALLVALUE DUP1 ISZERO PUSH2 0x10 JUMPI PUSH1 0x0 DUP1 REVERT JUMPDEST POP PUSH1 0x4 CALLDATASIZE LT PUSH2 0x36 JUMPI PUSH1 0x0 CALLDATALOAD PUSH1 0xE0 SHR DUP1 PUSH4 0x4D1C3E33 EQ PUSH2 0x3B JUMPI DUP1 PUSH4 0xB43C5D33 EQ PUSH2 0x45 JUMPI JUMPDEST PUSH1 0x0 DUP1 REVERT JUMPDEST PUSH2 0x43 PUSH2 0x76 JUMP JUMPDEST STOP JUMPDEST PUSH2 0x5F PUSH1 0x4 DUP1 CALLDATASIZE SUB DUP2 ADD SWAP1 PUSH2 0x5A SWAP2 SWAP1 PUSH2 0x276 JUMP JUMPDEST PUSH2 0x167 JUMP JUMPDEST PUSH1 0x40 MLOAD PUSH2 0x6D SWAP3 SWAP2 SWAP1 PUSH2 0x34C JUMP JUMPDEST PUSH1 0x40 MLOAD DUP1 SWAP2 SUB SWAP1 RETURN JUMPDEST PUSH1 0x40 MLOAD DUP1 PUSH1 0x40 ADD PUSH1 0x40 MSTORE DUP1 PUSH1 0x7B DUP2 MSTORE PUSH1 0x20 ADD PUSH1 0x40 MLOAD DUP1 PUSH1 0x40 ADD PUSH1 0x40 MSTORE DUP1 PUSH1 0x6 DUP2 MSTORE PUSH1 0x20 ADD PUSH32 0x7368756B6C610000000000000000000000000000000000000000000000000000 DUP2 MSTORE POP DUP2 MSTORE POP PUSH1 0x0 DUP1 CALLER PUSH20 0xFFFFFFFFFFFFFFFFFFFFFFFFFFFFFFFFFFFFFFFF AND PUSH20 0xFFFFFFFFFFFFFFFFFFFFFFFFFFFFFFFFFFFFFFFF AND DUP2 MSTORE PUSH1 0x20 ADD SWAP1 DUP2 MSTORE PUSH1 0x20 ADD PUSH1 0x0 KECCAK256 PUSH1 0x0 DUP3 ADD MLOAD DUP2 PUSH1 0x0 ADD SSTORE PUSH1 0x20 DUP3 ADD MLOAD DUP2 PUSH1 0x1 ADD SWAP1 DUP2 PUSH2 0x11E SWAP2 SWAP1 PUSH2 0x5B7 JUMP JUMPDEST POP SWAP1 POP POP PUSH1 0x0 DUP1 PUSH1 0x0 CALLER PUSH20 0xFFFFFFFFFFFFFFFFFFFFFFFFFFFFFFFFFFFFFFFF AND PUSH20 0xFFFFFFFFFFFFFFFFFFFFFFFFFFFFFFFFFFFFFFFF AND DUP2 MSTORE PUSH1 0x20 ADD SWAP1 DUP2 MSTORE PUSH1 0x20 ADD PUSH1 0x0 KECCAK256 SWAP1 POP POP JUMP JUMPDEST PUSH1 0x0 PUSH1 0x20 MSTORE DUP1 PUSH1 0x0 MSTORE PUSH1 0x40 PUSH1 0x0 KECCAK256 PUSH1 0x0 SWAP2 POP SWAP1 POP DUP1 PUSH1 0x0 ADD SLOAD SWAP1 DUP1 PUSH1 0x1 ADD DUP1 SLOAD PUSH2 0x190 SWAP1 PUSH2 0x3DA JUMP JUMPDEST DUP1 PUSH1 0x1F ADD PUSH1 0x20 DUP1 SWAP2 DIV MUL PUSH1 0x20 ADD PUSH1 0x40 MLOAD SWAP1 DUP2 ADD PUSH1 0x40 MSTORE DUP1 SWAP3 SWAP2 SWAP1 DUP2 DUP2 MSTORE PUSH1 0x20 ADD DUP3 DUP1 SLOAD PUSH2 0x1BC SWAP1 PUSH2 0x3DA JUMP JUMPDEST DUP1 ISZERO PUSH2 0x209 JUMPI DUP1 PUSH1 0x1F LT PUSH2 0x1DE JUMPI PUSH2 0x100 DUP1 DUP4 SLOAD DIV MUL DUP4 MSTORE SWAP2 PUSH1 0x20 ADD SWAP2 PUSH2 0x209 JUMP JUMPDEST DUP3 ADD SWAP2 SWAP1 PUSH1 0x0 MSTORE PUSH1 0x20 PUSH1 0x0 KECCAK256 SWAP1 JUMPDEST DUP2 SLOAD DUP2 MSTORE SWAP1 PUSH1 0x1 ADD SWAP1 PUSH1 0x20 ADD DUP1 DUP4 GT PUSH2 0x1EC JUMPI DUP3 SWAP1 SUB PUSH1 0x1F AND DUP3 ADD SWAP2 JUMPDEST POP POP POP POP POP SWAP1 POP DUP3 JUMP JUMPDEST PUSH1 0x0 DUP1 REVERT JUMPDEST PUSH1 0x0 PUSH20 0xFFFFFFFFFFFFFFFFFFFFFFFFFFFFFFFFFFFFFFFF DUP3 AND SWAP1 POP SWAP2 SWAP1 POP JUMP JUMPDEST PUSH1 0x0 PUSH2 0x243 DUP3 PUSH2 0x218 JUMP JUMPDEST SWAP1 POP SWAP2 SWAP1 POP JUMP JUMPDEST PUSH2 0x253 DUP2 PUSH2 0x238 JUMP JUMPDEST DUP2 EQ PUSH2 0x25E JUMPI PUSH1 0x0 DUP1 REVERT JUMPDEST POP JUMP JUMPDEST PUSH1 0x0 DUP2 CALLDATALOAD SWAP1 POP PUSH2 0x270 DUP2 PUSH2 0x24A JUMP JUMPDEST SWAP3 SWAP2 POP POP JUMP JUMPDEST PUSH1 0x0 PUSH1 0x20 DUP3 DUP5 SUB SLT ISZERO PUSH2 0x28C JUMPI PUSH2 0x28B PUSH2 0x213 JUMP JUMPDEST JUMPDEST PUSH1 0x0 PUSH2 0x29A DUP5 DUP3 DUP6 ADD PUSH2 0x261 JUMP JUMPDEST SWAP2 POP POP SWAP3 SWAP2 POP POP JUMP JUMPDEST PUSH1 0x0 DUP2 SWAP1 POP SWAP2 SWAP1 POP JUMP JUMPDEST PUSH2 0x2B6 DUP2 PUSH2 0x2A3 JUMP JUMPDEST DUP3 MSTORE POP POP JUMP JUMPDEST PUSH1 0x0 DUP2 MLOAD SWAP1 POP SWAP2 SWAP1 POP JUMP JUMPDEST PUSH1 0x0 DUP3 DUP3 MSTORE PUSH1 0x20 DUP3 ADD SWAP1 POP SWAP3 SWAP2 POP POP JUMP JUMPDEST PUSH1 0x0 JUMPDEST DUP4 DUP2 LT ISZERO PUSH2 0x2F6 JUMPI DUP1 DUP3 ADD MLOAD DUP2 DUP5 ADD MSTORE PUSH1 0x20 DUP2 ADD SWAP1 POP PUSH2 0x2DB JUMP JUMPDEST PUSH1 0x0 DUP5 DUP5 ADD MSTORE POP POP POP POP JUMP JUMPDEST PUSH1 0x0 PUSH1 0x1F NOT PUSH1 0x1F DUP4 ADD AND SWAP1 POP SWAP2 SWAP1 POP JUMP JUMPDEST PUSH1 0x0 PUSH2 0x31E DUP3 PUSH2 0x2BC JUMP JUMPDEST PUSH2 0x328 DUP2 DUP6 PUSH2 0x2C7 JUMP JUMPDEST SWAP4 POP PUSH2 0x338 DUP2 DUP6 PUSH1 0x20 DUP7 ADD PUSH2 0x2D8 JUMP JUMPDEST PUSH2 0x341 DUP2 PUSH2 0x302 JUMP JUMPDEST DUP5 ADD SWAP2 POP POP SWAP3 SWAP2 POP POP JUMP JUMPDEST PUSH1 0x0 PUSH1 0x40 DUP3 ADD SWAP1 POP PUSH2 0x361 PUSH1 0x0 DUP4 ADD DUP6 PUSH2 0x2AD JUMP JUMPDEST DUP2 DUP2 SUB PUSH1 0x20 DUP4 ADD MSTORE PUSH2 0x373 DUP2 DUP5 PUSH2 0x313 JUMP JUMPDEST SWAP1 POP SWAP4 SWAP3 POP POP POP JUMP JUMPDEST PUSH32 0x4E487B7100000000000000000000000000000000000000000000000000000000 PUSH1 0x0 MSTORE PUSH1 0x41 PUSH1 0x4 MSTORE PUSH1 0x24 PUSH1 0x0 REVERT JUMPDEST PUSH32 0x4E487B7100000000000000000000000000000000000000000000000000000000 PUSH1 0x0 MSTORE PUSH1 0x22 PUSH1 0x4 MSTORE PUSH1 0x24 PUSH1 0x0 REVERT JUMPDEST PUSH1 0x0 PUSH1 0x2 DUP3 DIV SWAP1 POP PUSH1 0x1 DUP3 AND DUP1 PUSH2 0x3F2 JUMPI PUSH1 0x7F DUP3 AND SWAP2 POP JUMPDEST PUSH1 0x20 DUP3 LT DUP2 SUB PUSH2 0x405 JUMPI PUSH2 0x404 PUSH2 0x3AB JUMP JUMPDEST JUMPDEST POP SWAP2 SWAP1 POP JUMP JUMPDEST PUSH1 0x0 DUP2 SWAP1 POP DUP2 PUSH1 0x0 MSTORE PUSH1 0x20 PUSH1 0x0 KECCAK256 SWAP1 POP SWAP2 SWAP1 POP JUMP JUMPDEST PUSH1 0x0 PUSH1 0x20 PUSH1 0x1F DUP4 ADD DIV SWAP1 POP SWAP2 SWAP1 POP JUMP JUMPDEST PUSH1 0x0 DUP3 DUP3 SHL SWAP1 POP SWAP3 SWAP2 POP POP JUMP JUMPDEST PUSH1 0x0 PUSH1 0x8 DUP4 MUL PUSH2 0x46D PUSH32 0xFFFFFFFFFFFFFFFFFFFFFFFFFFFFFFFFFFFFFFFFFFFFFFFFFFFFFFFFFFFFFFFF DUP3 PUSH2 0x430 JUMP JUMPDEST PUSH2 0x477 DUP7 DUP4 PUSH2 0x430 JUMP JUMPDEST SWAP6 POP DUP1 NOT DUP5 AND SWAP4 POP DUP1 DUP7 AND DUP5 OR SWAP3 POP POP POP SWAP4 SWAP3 POP POP POP JUMP JUMPDEST PUSH1 0x0 DUP2 SWAP1 POP SWAP2 SWAP1 POP JUMP JUMPDEST PUSH1 0x0 PUSH2 0x4B4 PUSH2 0x4AF PUSH2 0x4AA DUP5 PUSH2 0x2A3 JUMP JUMPDEST PUSH2 0x48F JUMP JUMPDEST PUSH2 0x2A3 JUMP JUMPDEST SWAP1 POP SWAP2 SWAP1 POP JUMP JUMPDEST PUSH1 0x0 DUP2 SWAP1 POP SWAP2 SWAP1 POP JUMP JUMPDEST PUSH2 0x4CE DUP4 PUSH2 0x499 JUMP JUMPDEST PUSH2 0x4E2 PUSH2 0x4DA DUP3 PUSH2 0x4BB JUMP JUMPDEST DUP5 DUP5 SLOAD PUSH2 0x43D JUMP JUMPDEST DUP3 SSTORE POP POP POP POP JUMP JUMPDEST PUSH1 0x0 SWAP1 JUMP JUMPDEST PUSH2 0x4F7 PUSH2 0x4EA JUMP JUMPDEST PUSH2 0x502 DUP2 DUP5 DUP5 PUSH2 0x4C5 JUMP JUMPDEST POP POP POP JUMP JUMPDEST JUMPDEST DUP2 DUP2 LT ISZERO PUSH2 0x526 JUMPI PUSH2 0x51B PUSH1 0x0 DUP3 PUSH2 0x4EF JUMP JUMPDEST PUSH1 0x1 DUP2 ADD SWAP1 POP PUSH2 0x508 JUMP JUMPDEST POP POP JUMP JUMPDEST PUSH1 0x1F DUP3 GT ISZERO PUSH2 0x56B JUMPI PUSH2 0x53C DUP2 PUSH2 0x40B JUMP JUMPDEST PUSH2 0x545 DUP5 PUSH2 0x420 JUMP JUMPDEST DUP2 ADD PUSH1 0x20 DUP6 LT ISZERO PUSH2 0x554 JUMPI DUP2 SWAP1 POP JUMPDEST PUSH2 0x568 PUSH2 0x560 DUP6 PUSH2 0x420 JUMP JUMPDEST DUP4 ADD DUP3 PUSH2 0x507 JUMP JUMPDEST POP POP JUMPDEST POP POP POP JUMP JUMPDEST PUSH1 0x0 DUP3 DUP3 SHR SWAP1 POP SWAP3 SWAP2 POP POP JUMP JUMPDEST PUSH1 0x0 PUSH2 0x58E PUSH1 0x0 NOT DUP5 PUSH1 0x8 MUL PUSH2 0x570 JUMP JUMPDEST NOT DUP1 DUP4 AND SWAP2 POP POP SWAP3 SWAP2 POP POP JUMP JUMPDEST PUSH1 0x0 PUSH2 0x5A7 DUP4 DUP4 PUSH2 0x57D JUMP JUMPDEST SWAP2 POP DUP3 PUSH1 0x2 MUL DUP3 OR SWAP1 POP SWAP3 SWAP2 POP POP JUMP JUMPDEST PUSH2 0x5C0 DUP3 PUSH2 0x2BC JUMP JUMPDEST PUSH8 0xFFFFFFFFFFFFFFFF DUP2 GT ISZERO PUSH2 0x5D9 JUMPI PUSH2 0x5D8 PUSH2 0x37C JUMP JUMPDEST JUMPDEST PUSH2 0x5E3 DUP3 SLOAD PUSH2 0x3DA JUMP JUMPDEST PUSH2 0x5EE DUP3 DUP3 DUP6 PUSH2 0x52A JUMP JUMPDEST PUSH1 0x0 PUSH1 0x20 SWAP1 POP PUSH1 0x1F DUP4 GT PUSH1 0x1 DUP2 EQ PUSH2 0x621 JUMPI PUSH1 0x0 DUP5 ISZERO PUSH2 0x60F JUMPI DUP3 DUP8 ADD MLOAD SWAP1 POP JUMPDEST PUSH2 0x619 DUP6 DUP3 PUSH2 0x59B JUMP JUMPDEST DUP7 SSTORE POP PUSH2 0x681 JUMP JUMPDEST PUSH1 0x1F NOT DUP5 AND PUSH2 0x62F DUP7 PUSH2 0x40B JUMP JUMPDEST PUSH1 0x0 JUMPDEST DUP3 DUP2 LT ISZERO PUSH2 0x657 JUMPI DUP5 DUP10 ADD MLOAD DUP3 SSTORE PUSH1 0x1 DUP3 ADD SWAP2 POP PUSH1 0x20 DUP6 ADD SWAP5 POP PUSH1 0x20 DUP2 ADD SWAP1 POP PUSH2 0x632 JUMP JUMPDEST DUP7 DUP4 LT ISZERO PUSH2 0x674 JUMPI DUP5 DUP10 ADD MLOAD PUSH2 0x670 PUSH1 0x1F DUP10 AND DUP3 PUSH2 0x57D JUMP JUMPDEST DUP4 SSTORE POP JUMPDEST PUSH1 0x1 PUSH1 0x2 DUP9 MUL ADD DUP9 SSTORE POP POP POP JUMPDEST POP POP POP POP POP POP JUMP INVALID LOG2 PUSH5 0x6970667358 0x22 SLT KECCAK256 0xE9 0xE9 LOG2 0xF6 MLOAD SWAP8 DUP16 0x4A COINBASE 0xAD CALLDATALOAD CALLDATASIZE SHL 0xB2 0xCD INVALID EXTCODEHASH PUSH5 0xD9E8CF042D RETURNDATACOPY MULMOD 0xEF SWAP9 POP DUP10 MUL COINBASE BALANCE PUSH5 0x736F6C6343 STOP ADDMOD SLT STOP CALLER "
				},
				"gasEstimates": {
					"creation": {
						"codeDepositCost": "345400",
						"executionCost": "380",
						"totalCost": "345780"
					},
					"external": {
						"exapmles()": "infinite",
						"myStructs(address)": "infinite"
					}
				},
				"methodIdentifiers": {
					"exapmles()": "4d1c3e33",
					"myStructs(address)": "b43c5d33"
				}
			},
			"storageLayout": {
				"storage": [
					{
						"astId": 11,
						"contract": "storgaeMemoreyCallData.sol:DataLocations",
						"label": "myStructs",
						"offset": 0,
						"slot": "0",
						"type": "t_mapping(t_address,t_struct(MyStruct)6_storage)"
					}
				],
				"types": {
					"t_address": {
						"encoding": "inplace",
						"label": "address",
						"numberOfBytes": "20"
					},
					"t_mapping(t_address,t_struct(MyStruct)6_storage)": {
						"encoding": "mapping",
						"key": "t_address",
						"label": "mapping(address => struct DataLocations.MyStruct)",
						"numberOfBytes": "32",
						"value": "t_struct(MyStruct)6_storage"
					},
					"t_string_storage": {
						"encoding": "bytes",
						"label": "string",
						"numberOfBytes": "32"
					},
					"t_struct(MyStruct)6_storage": {
						"encoding": "inplace",
						"label": "struct DataLocations.MyStruct",
						"members": [
							{
								"astId": 3,
								"contract": "storgaeMemoreyCallData.sol:DataLocations",
								"label": "foo",
								"offset": 0,
								"slot": "0",
								"type": "t_uint256"
							},
							{
								"astId": 5,
								"contract": "storgaeMemoreyCallData.sol:DataLocations",
								"label": "text",
								"offset": 0,
								"slot": "1",
								"type": "t_string_storage"
							}
						],
						"numberOfBytes": "64"
					},
					"t_uint256": {
						"encoding": "inplace",
						"label": "uint256",
						"numberOfBytes": "32"
					}
				}
			},
			"userdoc": {
				"kind": "user",
				"methods": {},
				"version": 1
			}
		}
	}
}